:020000040800F2
:100000002006002049010008370C00085D060008A2
:10001000330C00087F030008FF18000800000000F0
:100020000000000000000000000000007D0F00083C
:100030008D04000800000000A90C0008B51300089A
:100040006301000863010008630100086301000800
:1000500063010008630100086301000863010008F0
:1000600063010008630100086301000863010008E0
:1000700063010008630100086301000863010008D0
:1000800063010008630100086301000863010008C0
:1000900063010008630100086301000863010008B0
:1000A00063010008630100086301000863010008A0
:1000B00063010008191400086301000863010008C7
:1000C0006301000863010008630100086301000880
:1000D00063010008C51500086301000863010008FA
:1000E0006301000863010008630100086301000860
:1000F0006301000863010008630100086301000850
:10010000630100086301000863010008630100083F
:10011000630100086301000863010008630100082F
:10012000630100086301000863010008630100081F
:10013000DFF810D000F0A0F8004800470D220008BA
:10014000AFF300802006002006488047064800479D
:10015000FEE7FEE7FEE7FEE7FEE7FEE7FEE7FEE777
:10016000FEE7FEE7B91300083101000870B5064646
:1001700001F0F2FB046805460A220021304600F037
:1001800042F82C6070BD2DE9F05F054600209246D4
:100190009B4688460646814640241BE02846414649
:1001A0004746224600F07AF853465A46C01A914113
:1001B00010D311461846224600F016F82D1A67EBA8
:1001C00001084F4622460120002100F00DF817EBF0
:1001D00000094E41201EA4F10104DFDC48463146EF
:1001E0002A464346BDE8F09F202A04DB203A00FA65
:1001F00002F1002070479140C2F1200320FA03F37E
:100200001943904070472DE9F04791460F468046CC
:100210000446002614F8015B2DB100F04FF8006889
:10022000405DC007F6D12B2D02D02D2D18D0641EB5
:100230004A463946204600F045F827B13968A142C0
:1002400001D1C7F8008071054FF002040BD5404280
:10025000002803DD01F080FB0460A007BDE8F08703
:1002600046F48066E4E70028F8DA01F075FB0460E4
:100270006FF00040F2E70000064C074D06E0E06832
:1002800040F0010394E8070098471034AC42F6D3DD
:10029000FFF752FFA8270008C8270008202A04DB20
:1002A000203A21FA02F00021704721FA02F3D040EF
:1002B000C2F1200291400843194670470048704738
:1002C000342600082DE9F05F8246007800271546A5
:1002D0008B460AF10104B946302801D09DB113E0E4
:1002E00014F8010B0127782803D0582801D045B114
:1002F0000AE00DB1102D07D10027102514F8010BCD
:1003000002E0082500E00A250026B0460EE005FBC5
:10031000080005FB06F1012701EB10461FFA80F8E3
:10032000B6F5803F00D3B94614F8010B294600F01A
:1003300018F80028EBDABBF1000F05D00FB1641EEE
:1003400000E05446CBF80040B9F1000F06D001F0B0
:1003500003FB02210160C81EBDE8F09F48EA064089
:10036000FAE73A2800D2303820F02002412A01D39F
:10037000A2F13700884201D34FF0FF30704700BF31
:10038000FEE7000030B589B000F056F904460020C1
:10039000059006900790089005A800F011FD2248EE
:1003A000007857280BD020480078412807D01E48F5
:1003B0000078532803D01C480078442801D101203C
:1003C00000E00020054600201FE005A951F820109C
:1003D000164A52F82020891A01AA42F820106DB955
:1003E00001A951F8201011F1030F07DB01A951F801
:1003F0002010032902DC002142F8201005A951F841
:1004000020100A4A42F82010401C0428DDDB08496D
:10041000019888610298C86103980862049848624C
:100420000448046009B030BD1A000020C801002053
:10043000D80100202800002000B500F0FDF8024699
:1004400006480068101AB0F5FA7F05D9044800780C
:1004500010B100200249087000BD00001C000020FF
:100460001A0000200146072323EA01021202054B6D
:1004700018684FF6FF031840034B18431043014B15
:10048000186070470CED00E00000FA0570470000AE
:1004900070B505464FF49674412D17D0442D1ED0EB
:1004A000532D08D0572D23D123B222B221B220B22E
:1004B00000F006FF2DE0604203B2604202B26042EB
:1004C00001B2604200B200F0FBFE22E023B222B291
:1004D000604201B2604200B200F0F2FE19E06042F8
:1004E00003B2604202B221B220B200F0E9FE10E095
:1004F00000231A461946184601F08AFC00200649D6
:10050000088048808880C88000F096F80349086019
:1005100000BF00BF70BD00002C000020480000207C
:100520002DE9F0410246002500260020002300248A
:10053000002791F803C00CF00F0591F803C00CF0F0
:10054000100CBCF1000F03D091F802C04CEA050575
:1005500091F800C0BCF1000F31D0146800202BE0EE
:100560004FF0010C0CFA00F3B1F800C00CEA0306DE
:100570009E4220D183004FF00F0C0CFA03F7BC43CE
:1005800005FA03FC4CEA040491F803C0BCF1280FFF
:1005900006D14FF0010C0CFA00FCC2F814C00AE0BE
:1005A00091F803C0BCF1480F05D14FF0010C0CFAD3
:1005B00000FCC2F810C0401C0828D1D31460B1F868
:1005C00000C0BCF1FF0F34DD546800202EE000F1C4
:1005D000080C4FF0010808FA0CF3B1F800C00CEA5F
:1005E00003069E4221D183004FF00F0C0CFA03F753
:1005F000BC4305FA03FC4CEA040491F803C0BCF1C7
:10060000280F05D100F1080C08FA0CF8C2F8148084
:1006100091F803C0BCF1480F07D100F1080C4FF06E
:10062000010808FA0CF8C2F81080401C0828CED344
:100630005460BDE8F081000072B60649086862B6F1
:1006400005490968884202D803490968481C0249DB
:1006500008607047100000201400002000BFFEE773
:1006600010B500200E4908600E48006820F4704064
:100670000C4908600846006840F4405008600020BB
:100680000949C1F8AC01012001F042FC01200449F4
:10069000086001F03DFC00200349C1F8A80110BD2D
:1006A000A8812142040C01400080214208B50121AB
:1006B000082000F00BFB4FF44060ADF80000102064
:1006C0008DF8030003208DF8020069460148FFF70A
:1006D00027FF08BD000C014010B500200E4908603E
:1006E0000E48006820F470400C4908600846006815
:1006F00040F44050086001200949C1F8AC0101F004
:1007000007FC01200449086001F002FC00200449B4
:10071000C1F8A80110BD0000A8812142040C0140CD
:100720000080214270B5054600241748006820F477
:100730007040154908600846006840F400400860B1
:10074000002616E0002011490860022001F0E0FBBD
:1007500001200F49C1F8A8016006040E0B487C383F
:10076000006808B1601CC4B2022001F0D1FB701C0B
:10077000C6B2082EE6DB15B1FFF772FF01E0FFF706
:10078000ABFF204670BD0000040C0140A88121424F
:100790000080214270B504461448006820F470407F
:1007A000124908600846006840F440500860002084
:1007B0000F490860002516E0E0090D49091D086091
:1007C0006006040E012001F0A3FB01200949C1F8D5
:1007D000A80101F09DFB002005490860012001F0FF
:1007E00097FB681CC5B2082DE6DB70BD040C014008
:1007F000A88121420080214210B51648006820F4EB
:100800007040144908600846006840F44050086091
:100810000120114908601148D0F82C0108B90020C6
:1008200010BD01200C49091F086001F071FB002078
:100830000A49C1F8AC0108488038006808B10020B6
:10084000EEE7012001F064FB00200349091F086066
:100850000120E5E7040C0140AC81214200802142E7
:1008600010B50E48006820F470400C490860084636
:10087000006840F4405008600020094908600949B8
:10088000C1F8AC01012001F043FB012004490860DC
:100890000449C1F8AC0101F03BFB10BD040C014060
:1008A000A88121420080214210B50024154800682B
:1008B00020F47040134908600846006840F4004086
:1008C000086001201049086001F022FB01200F4957
:1008D000C1F8A80101F01CFB0AE0601CC4B2322C74
:1008E00003DDFFF7BDFF002010BD012001F010FB6C
:1008F0000548803800680028EFD10349091F0860C7
:100900000120F1E7040C0140AC812142008021422A
:1009100001464906084A926942F00102064B9A6173
:10092000064A526822F0E062044B5A601A46526846
:100930000A435A6070470000001002400000014066
:100940001CB50446062269463B2000F02FF99DF8AD
:1009500001009DF8001040EA012000B220809DF8BF
:1009600003009DF8021040EA012000B260809DF86B
:1009700005009DF8041040EA012000B2A0801CBDD3
:100980001CB5044606226946432000F00FF99DF885
:1009900001009DF8001040EA012000B220809DF87F
:1009A00003009DF8021040EA012000B260809DF82B
:1009B00005009DF8041040EA012000B2A0801CBD93
:1009C00008B50020009001226946752000F0EEF87D
:1009D0009DF80000682804D0054800F093FF00202F
:1009E00008BD9DF8001003A000F08CFF0120F7E780
:1009F000582700084D505536303530204944203DA9
:100A00002025640D0A00000038B50446022269461C
:100A1000412000F0CBF89DF801009DF8001040EA5D
:100A2000012000B2208038BDF8B531A000F06AFF87
:100A300001F028FB002406E0002600E0761CB6F555
:100A40007A7FFBDB641C40F6B8308442F4DB002084
:100A500000900525002420E02A46611C2BA000F010
:100A600051FF01226946752000F0A0F89DF80000B2
:100A7000682803D09DF80000692805D19DF8001072
:100A80002AA000F03FFF0AE09DF800102DA000F022
:100A900039FF642001F01EFA641CAC42DCDB00BFAD
:100AA0009DF80000682807D09DF80000692803D051
:100AB0002AA000F027FFF8BD00216B2000F0A2F86B
:100AC000642001F007FA0721192000F09BF80621A5
:100AD0001A2000F097F818211B2000F093F800214D
:100AE0001C2000F08FF829A000F00CFF00BFE2E707
:100AF000E5BC80E5A78B4D505536303530E5889DF7
:100B0000E5A78BE58C962E2E2E0D0A00E5B09DE80C
:100B1000AF952025642F25643A20E8AFBBE58F967A
:100B200057484F5F414D5F492E2E2E00E29C852095
:100B3000E68890E58A9F3A203078253032580D0AB1
:100B400000000000E29D8C20E5A4B1E8B4A53A20A5
:100B50003078253032580D0A000000004D505536CF
:100B6000303530E5889DE5A78BE58C96E5A4B1E8A6
:100B7000B4A5EFBC8CE697A0E6B395E8AFBBE58FD4
:100B800096E6ADA3E7A1AE49440D0A00E29C85209C
:100B90004D505536303530E5889DE5A78BE58C9670
:100BA000E68890E58A9F5C720A0000002DE9F0411A
:100BB00007460C46154601F0E3FAD02001F0B6FADC
:100BC00001F006FB384601F0B1FA01F001FB01F03B
:100BD000D7FAD12001F0AAFA01F0FAFA002606E0CD
:100BE000012001F07BFA2070641C701CC6B2681EE4
:100BF000B042F5DC002001F071FA207001F0D8FA63
:100C0000BDE8F08170B505460C4601F0B9FAD02078
:100C100001F08CFA01F0DCFA284601F087FA01F0C5
:100C2000D7FA204601F082FA01F0D2FA01F0C0FAB8
:100C300070BD00BFFEE7704770B5002100230F2292
:100C4000C47804B3154C246804F4E064C4F5E0648B
:100C5000210AC1F10403CA40447804FA03F18478FC
:100C60001440214309010E4C0678A155047804F084
:100C70001F050124AC4005786D11AD0005F1E0259C
:100C8000C5F8004109E0047804F01F050124AC40D8
:100C9000044D0678761145F8264070BD0CED00E055
:100CA00000E400E080E100E07047000029B1064A5E
:100CB000D2690243044BDA6104E0034AD2698243F9
:100CC000014BDA61704700000010024029B1064A6A
:100CD00092690243044B9A6104E0034A9269824399
:100CE000014B9A61704700000010024030B50021AE
:100CF0000022002400232D4D6D6805F00C0121B168
:100D0000042905D0082923D105E0294D056022E0FA
:100D1000274D05601FE0254D6D6805F47012234DC9
:100D20006D6805F48034022505EB92421CB9214D13
:100D3000554305600BE01D4D6D6805F400351DB190
:100D40001C4D5543056002E0194D5543056002E016
:100D5000174D056000BF00BF144D6D6805F0F00130
:100D60000909154D6B5C0568DD4045600F4D6D68E8
:100D700005F4E061090A104D6B5C4568DD40856053
:100D80000A4D6D6805F46051C90A0B4D6B5C4568EE
:100D9000DD40C560054D6D6805F44041890B074D88
:100DA0006B5CC568B5FBF3F5056130BD0010024012
:100DB00000127A0000093D00600000207000002051
:100DC0002DE9F04104460026002700BF31E000F085
:100DD0005DF8002005E0284951F8201044F8201063
:100DE000401C0428F7DB012700200BE054F82010FA
:100DF000491C31B9002721490978491C1F4A117043
:100E000002E0401C0428F1DB00BF6FB100201B4949
:100E1000087000BF05E054F82010194A42F820106D
:100E2000401C0428F7DB06E0012001F053F8701C99
:100E3000C6B2032ECBDB00BFDFB9002005E01049AE
:100E400051F8201044F82010401C0428F7DBFFF76D
:100E5000F3FB05460B480068281A41F288318842A6
:100E600006D906480178084800F04CFD05480560A1
:100E700000BFBDE8F0810000100200203400002017
:100E8000B8010020380000203826000810B5384B83
:100E900002222021262001F069F8364B022221216E
:100EA000262001F063F8324800780006304949787E
:100EB00040EA01402F49097840EA01202D4949784C
:100EC00008432D4908602A4B02222221262001F0E6
:100ED0004DF8284B02222321262001F047F8244810
:100EE000007800062249497840EA01402149097802
:100EF00040EA01201F49497808431F4948601C4BBC
:100F000002222421262001F031F81A4B0222252149
:100F1000262001F02BF8164800780006144949787D
:100F200040EA01401349097840EA01201149497813
:100F30000843114988600E4B02222621084601F021
:100F400015F80C4B02222721262001F00FF8084843
:100F5000007800060649497840EA014005490978C9
:100F600040EA01200349497808430349C86010BD9D
:100F7000A0000020A2000020100200207047000006
:100F800070B5A4B0FFF758FB06461448406A1349F1
:100F9000096A124AD269CDE90206CDE900210F485B
:100FA0000FA28021836904A800F0BCFC0446002C39
:100FB00012DD802C10D200250CE000BF80211248E9
:100FC00000F0CBFB0028F9D004A8415D0E4800F0EA
:100FD00092FC6D1CA542F0DB24B070BDD80100204E
:100FE0002F666F75725F776865656C5F656E636F9E
:100FF0006465722C25642C25642C25642C25642CB6
:10100000256C750A000000000038014070B5ACB0D6
:10101000FFF712FB06460AA8FFF792FC08A8FFF7A5
:10102000AFFC07A8FFF7F0FCBDF82800384908809E
:10103000BDF82A004880BDF82C008880BDF820004B
:10104000C880BDF822000881BDF824004881BDF9A0
:101050001C00888108460088E8B908464088D0B955
:1010600008468088B8B92B480078401C2949087088
:10107000FFF7E2FA054628480068281A41F288314D
:10108000884206D923480178244800F03BFC2248D6
:1010900005602CB070BD00201E4908701C48B0F9D6
:1010A0000C001B49B1F90A10194AB2F90820CDE920
:1010B0000506CDE903211648B0F906001449B1F937
:1010C0000410134AB2F90220CDE900210290104821
:1010D000B0F9003012A280210CA800F023FC0446D5
:1010E000002C12DD802C10D200250CE000BF8021E6
:1010F000144800F032FB0028F9D00CA8415D1148DB
:1011000000F0F9FB6D1CA542F0DB00BFC1E7000059
:10111000A80000203C00002040000020C826000855
:101120002F696D755F646174612C25642C25642CB6
:1011300025642C25642C25642C25642C25642C2501
:101140006C750A000038014010B500F001F810BDC0
:101150000CB50020019000903348006840F48030C6
:101160003149086000BF3048006800F4003000904A
:101170000198401C0190009818B90198B0F5A06F33
:10118000F1D12948006800F4003010B1012000902E
:1011900001E0002000900098012843D12348006816
:1011A00040F01000214908600846006820F0030064
:1011B00008600846006840F0020008601A4840686D
:1011C000194948600846406848600846406840F44D
:1011D000806048600846406820F47C1048600846FB
:1011E000406840F4E81048600846006840F08070AD
:1011F000086000BF0C48006800F000700028F9D0BB
:101200000948406820F003000749486008464068E4
:1012100040F00200486000BF0348406800F00C0046
:101220000828F9D10CBD0000001002400020024047
:1012300010B50446200A054908704C700B4602227E
:101240000421262000F0CDFE10BD00008800002003
:1012500010B50446200A054908704C700B4602225E
:101260000321262000F0BDFE10BD000086000020F6
:1012700010B504460549204600F068FE034B0422E1
:101280000521262000F0ADFE10BD00008A000020E0
:1012900010B50446200A054908704C700B4602221E
:1012A0001146262000F09DFE10BD000084000020A5
:1012B00001B56B4602220121262000F092FE08BDF6
:1012C0002DE9FC4104460D4616461F464FF06408C2
:1012D000ADF80040ADF80250ADF80460ADF806700E
:1012E000002020E03DF81020164B33F81030D21AC1
:1012F00011B20A1E01DB134600E05342642B0CDDE1
:10130000104A32F91020002901DD642301E06FF05A
:1013100063031A4412B22DF810203DF81020094B37
:1013200023F81020401C0428DCDBBDF90630BDF991
:101330000420BDF90210BDF9000000F087FDBDE8F2
:10134000FC8100002C00002010B504460B480078FA
:1013500000EB8000A4EB4000094908600120094926
:1013600008700648007800EB8000420004482146DF
:101370000368054800F0C6FA10BD00001800002000
:10138000080000200C0000207C260008042808D15A
:101390004FF0E021096941F004014FF0E0221161B2
:1013A00007E04FF0E021096921F004014FF0E0224D
:1013B000116170477047000010B51348006840F095
:1013C00001001149086008464068104908400E496C
:1013D0004860084600680E4908400B490860084606
:1013E000006820F4802008600846406820F4FE0071
:1013F00048604FF41F008860FFF7A6FE4FF00060C2
:101400000449086010BD0000001002400000FFF811
:10141000FFFFF6FE08ED00E010B501210E4800F0D8
:1014200065F8C0B101210C4800F051F872B60B48C4
:1014300000680A300949086009480078401C0849DA
:10144000087062B607480088002804DD0548008857
:10145000401E0449088010BD0004004080000020A8
:10146000180000207C0000201FB501210220FFF79A
:101470001DFC41F61F40ADF804006320ADF80800E4
:1014800001A9104800F04CF801210E4800F01CF8AA
:10149000012211460B4800F03AF81D208DF800009B
:1014A00004208DF8010002208DF8020001208DF843
:1014B00003006846FFF7C0FB0121024800F00AF86C
:1014C0001FBD000000040040CA4302827047CA43A7
:1014D0000282704721B1028842F00102028004E0DA
:1014E00002884FF6FE731A400280704730B50246FC
:1014F000002000230024158A05EA0103958905EAE6
:10150000010413B10CB1012000E0002030BD1AB17C
:1015100083890B43838102E083898B4383817047F6
:10152000002202881D4B98420ED01D4B98420BD0D2
:10153000B0F1804F08D01B4B984205D01A4B98420F
:1015400002D01A4B984204D14FF68F731A404B8841
:101550001A43174B984207D0164B984204D04FF6C7
:10156000FF431A40CB881A4302808B8883850B88FF
:1015700003850A4B98420BD0094B984208D00E4B7A
:10158000984205D00D4B984202D00D4B984201D1A4
:101590000B7A03860123838270470000002C0140F0
:1015A000003401400004004000080040000C0040EE
:1015B0000010004000140040004001400044014081
:1015C00000480140FEB540F22551264800F0D2F80F
:1015D000002845D0234800F089F9C4B2572C05D023
:1015E000412C03D0532C01D0442C0AD11E48047046
:1015F000FFF722F81D49086021461DA000F082F97E
:1016000028E0542C26D10025002713E040F2255174
:10161000144800F0AFF868B1124800F067F9C6B29C
:101620000A2E01D00D2E00D106E028466D1C0DF8C3
:10163000006000BF0B2DE9DB00BF00200DF80500A6
:10164000002D06DD6846FEF791FD07463846FFF798
:101650007BFE00BF40F22551024800F063F800BF56
:10166000FEBD0000003801401A0000201C000020D0
:10167000434D445F524543563A2025630D0A00000E
:1016800000B587B0012144F20400FFF71FFB4FF4BF
:101690000070ADF8180018208DF81B0003208DF89D
:1016A0001A0006A91D48FEF73BFF4FF48060ADF815
:1016B000180004208DF81B0006A91848FEF730FF1B
:1016C0004FF4E13002900020ADF80C00ADF80E00B0
:1016D000ADF81000ADF814000C20ADF8120002A90E
:1016E0000F4800F097F8012240F225510C4800F015
:1016F0006BF825208DF8040000208DF805008DF88A
:10170000060001208DF8070001A8FFF795FA0121D6
:10171000034800F016F807B000BD000000080140C3
:101720000038014010B50022002340F66A14A1429F
:1017300000D100BF0A1201249440A3B2DC4304800C
:1017400010BD21B1828942F40052828104E0828975
:101750004DF6FF731A408281704702460020B1F5B2
:10176000007F00D100BF13880B400BB1012000E0C7
:101770000020704770B50246002400230025002099
:1017800040F66A16B14200D100BFC1F3421501F024
:101790001F03012606FA03F3012D02D19689334077
:1017A00006E0022D02D1168A334001E0968A3340CA
:1017B0000C12012606FA04F41688344013B10CB159
:1017C000012000E0002070BDF0B503460024002693
:1017D0000025002040F66A17B94200D100BF184624
:1017E000C1F3421401F01F06012707FA06F5012C88
:1017F00001D10C3004E0022C01D1103000E0143093
:101800001AB107682F43076002E00768AF4307601B
:10181000F0BD00002DE9F04786B005460E460024D5
:10182000A24600BFA1460027B08900B100BF2F46E5
:101830002C8A4CF6FF700440F08804432C82AC895B
:101840004EF6F3100440B08831890843718908438B
:101850000443AC81AC8A4FF6FF400440B089044396
:10186000AC8201A8FFF742FA1F48874202D1DDF897
:1018700010A001E0DDF80CA0A88900F4004040B100
:101880000AEBCA0000EB0A1031684900B0FBF1F81E
:1018900007E00AEBCA0000EB0A1031688900B0FBD0
:1018A000F1F86420B8FBF0F004012009642101FB89
:1018B0001089A88900F4004040B1322000EBC90033
:1018C000B0FBF1F000F00700044308E0322000EB29
:1018D00009106421B0FBF1F000F00F0004432C81EB
:1018E00006B0BDE8F0870000003801400146888856
:1018F000C0F308007047C1F308028280704700BF40
:10190000FEE700000FB4054B10B503A9044A029886
:1019100000F036F810BC5DF814FB0000511F000801
:10192000780000200FB47CB50C0009AD01D0611E19
:1019300000E00021CDE90001064B6A4629460898DF
:1019400000F01EF8002C02D0009A002111707CBC1F
:101950005DF814FBD71D000800487047A400002064
:1019600002E008C8121F08C1002AFAD17047704768
:10197000002001E001C1121F002AFBD170470000C6
:101980002DE9FF4F8DB00F460546002606E02528BD
:101990000BD0DDE90F1290476D1C761C28780028CB
:1019A000F5D111B03046BDE8F08F0024A246A14623
:1019B0000122E94900E0044315F8013F203B02FA07
:1019C00003F00842F7D128782A2810D06FF02F02B0
:1019D0002878A0F13001092914D80AEB8A0102EB1A
:1019E000410144F0020400EB010A6D1CF0E701CF55
:1019F0005FEA000A03D544F40054CAF1000A44F037
:101A000002046D1C28782E2817D115F8010F44F018
:101A100004042A280ED06FF02F022878A0F130019C
:101A200009290AD809EB890102EB410100EB010900
:101A30006D1CF2E757F8049B6D1C28786C280FD0BA
:101A400006DC4C2817D068280DD06A2814D104E091
:101A5000742810D07A280FD10DE044F400140AE065
:101A600044F4801401E044F440146978814202D1C6
:101A700004F580146D1C6D1C28786E281ED00CDCBB
:101A8000632830D004DC00288BD0582811D19FE087
:101A9000642867D069280CD164E073282DD004DC59
:101AA0006F2872D0702804D194E075286ED0782801
:101AB0006DD0DDE90F129047761C4BE1C4F3025064
:101AC000022806D0032809D0042801CF09D00660D7
:101AD00040E101CFF117C0E900613BE101CF068091
:101AE00038E1067036E117F8040B8DF8000000208D
:101AF0008DF80100EB46012003E057F804BB4FF0DE
:101B0000FF3061074FF0000102D40DE008F1010140
:101B1000884649450FDA8045F8DB1BF80810002994
:101B2000F4D108E008F1010188468142FADB1BF894
:101B300008100029F6D1DDE90F23AAEB0800814641
:101B4000214600F031F9304400EB080604E0DDE9FD
:101B50000F121BF8010B9047B8F10108F7D221468C
:101B60004846F2E00A21C4F302524FF0000B0891FC
:101B7000022A04D001CFC117032A09D00AE0FF1DB1
:101B800027F00707F7E8020108E02CE01EE01FE05D
:101B900000B2C117042A01D140B2C117021E71F16F
:101BA000000206DA0023D0EB030063EB01012D22D3
:101BB00002E0220504D52B228DF82420012203E027
:101BC000E20701D02022F7E7904653E00A210BE01C
:101BD000102109E010214FF0000B44F004044FF0F5
:101BE0000809089103E008214FF0000B0891C4F3A5
:101BF0000252022A04D001CF0021032A06D006E0B7
:101C0000FF1D27F00707F7E8020103E080B2042A6E
:101C100000D1C0B24FF0000822072BD52A78702AD5
:101C200007D0DDF820C08CF0100C5CEA0B0C05D05E
:101C30000EE040228DF82420012208E050EA010342
:101C400006D030238DF824308DF8252002229046CE
:101C5000089B83F0080353EA0B030BD150EA0102FF
:101C600001D1620706D530228DF824204FF00108FB
:101C7000A9F101092A78582A04D038A20B9208AA9F
:101C80000A920BE03AA2F9E75B46089AFEF77BFA64
:101C90000B9B9B5C0A9A521E0A92137050EA010237
:101CA000F2D10A98ADEB000000F1200B600702D5DD
:101CB00024F4803401E04FF00109D94502DDA9EB9D
:101CC0000B0000E0002000EB0B0141440890AAEB60
:101CD000010AE00306D4DDE90F232146504600F057
:101CE00063F806444FF0000908E009A911F809005B
:101CF000DDE90F12904709F10109761CC145F4DBBB
:101D0000E0030CD5DDE90F232146504600F04CF8E6
:101D1000064404E0DDE90F1230209047761C089954
:101D2000481E08900029F5DC08E00A980A99007816
:101D3000491C0A91DDE90F129047761CBBF10001A6
:101D4000ABF1010BF1DC21465046DDE90F2300F039
:101D500019F806446D1C21E60928010030313233A0
:101D600034353637383961626364656600000000D7
:101D700030313233343536373839414243444546C1
:101D8000000000002DE9F041044600251E461746DC
:101D9000880404D405E039462020B0476D1C641E39
:101DA000F9D52846BDE8F0812DE9F041044600252B
:101DB0001E469046C80301D5302700E0202788043E
:101DC00004D505E041463846B0476D1C641EF9D580
:101DD0002846BDE8F0814A68002A06D00A68531CEC
:101DE0000B6010704868401E4860704710B50220B4
:101DF000FEF738FB00F048F80220FEF789FD0120CD
:101E0000FEF786FD4FF4E13000F082FB10BD0000CC
:101E10002DE9F04107460C4615461E46380A0A4988
:101E200008704F70200A8870CC70280A08714D71B4
:101E3000300A8871CE710B4608220721262000F057
:101E4000D0F8BDE8F0810000960000202DE9F041B7
:101E500007460C4615461E46380A0A4908704F7058
:101E6000200A8870CC70280A08714D71300A887178
:101E7000CE710B4608220621262000F0B2F8BDE8FC
:101E8000F08100008E00002010B50E4800680E4959
:101E9000B0FBF1F0C4B26FF00400FFF777FAE1177E
:101EA00004EB5171C910094A11701046007800EB1B
:101EB0004001C1EBC0104FF6FF7101EAC0000449B8
:101EC000088010BD4C00002040420F00740000202C
:101ED0007600002001460D4A12884A434FF0E02365
:101EE0005A6100229A6101221A6100BF4FF0E0227C
:101EF000106900F001021AB100F48032002AF5D016
:101F000000224FF0E0231A619A61704776000020AA
:101F100001460D4A12784A434FF0E0235A610022ED
:101F20009A6101221A6100BF4FF0E022106900F0AF
:101F300001021AB100F48032002AF5D000224FF0DD
:101F4000E0231A619A6170477400002008607047AE
:101F500000BF054A128802F04002002AF9D0C2B23E
:101F6000014B1B1D1A807047003801402DE9F041DC
:101F700006460F4614461D46FEF73EFC10B90120EA
:101F8000BDE8F0817106080EFEF704FCFEF78CFC3C
:101F900018B9FEF765FC0120F2E73846FEF7FAFBB8
:101FA000FEF782FCFEF728FC012101EB4601C8B2D6
:101FB000FEF7F0FBFEF778FC0DE0012C04D10020C9
:101FC000FEF7B0FB287003E00120FEF7ABFB2870A2
:101FD0006D1C601EC4B2002CEFD1FEF741FC002046
:101FE000CEE72DE9F04105460E4617469846FEF726
:101FF00003FC10B90120BDE8F0816906080EFEF768
:10200000C9FBFEF751FC18B9FEF72AFC0120F2E7E4
:102010003046FEF7BFFBFEF747FC00240BE018F844
:102020000400FEF7B7FBFEF73FFC18B9FEF718FCFB
:102030000020E0E7641CBC42F1DBFEF711FC00204D
:10204000D9E7000010B580200949086000F012F8B7
:1020500040200749091F086000F00CF8402004499F
:10206000086000F007F880200149091F086010BDD2
:10207000140C0140002001E0411CC8B20A28FBDB1F
:102080007047000008B501210820FEF71FFEC020A0
:10209000ADF8000003208DF8020014208DF8030035
:1020A00069460348FEF73CFA00F082F808BD0000DC
:1020B000000C014010B5802007490860FFF7DAFFE7
:1020C000402005490860FFF7D5FF40200249091D5F
:1020D0000860FFF7CFFF10BD100C014070B505463A
:1020E0000024002616E06006040E40200E49086019
:1020F000FFF7C0FF0C480838006800F0800008B106
:10210000601CC4B240200849091D0860FFF7B2FFF7
:10211000701CC6B2082EE6DB15B9FFF7CBFF01E055
:10212000FFF790FF204670BD100C014070B50446CB
:10213000002520E004F0800018B180200F490860DD
:1021400003E080200D49091D0860FFF793FF402040
:102150000A490860FFF78EFF40200849091D086002
:10216000072D02D18020091F08606006040EFFF7CA
:1021700081FF681CC5B2082DDCDB70BD100C01406E
:1021800010B580200949086040200860FFF772FF01
:1021900080200649091D0860FFF76CFF40200349B5
:1021A000091D0860FFF766FF10BD0000100C01401C
:1021B00010B58020054908604020091F0860FFF71E
:1021C00059FF80200149091F086010BD140C01400F
:1021D00010B580200C490860FFF74CFF40200A49E9
:1021E0000860FFF747FF08480838006800F08000E3
:1021F00008B1012400E0002440200349091D0860C3
:10220000FFF738FF204610BD100C014086B0FFF7E5
:10221000EDFDFFF735FAFFF727F9FEF747FAFEF76E
:1022200003FC4FA0FFF76EFB5DA0FFF76BFB62A006
:10223000FFF768FB6E48FFF765FB6EA0FFF762FBD8
:10224000FEF7BEFB18B971A0FFF75CFB02E07AA0B5
:10225000FFF758FB02A8FEF7B3FD059800907DA09C
:1022600002A90EC9FFF74EFB0120FFF721F86420F9
:10227000FFF730FE1E20FEF7DBFF6420FFF72AFE8B
:102280000B20FEF7E5FF6420FFF724FE7B48FEF7F6
:10229000EFFF6420FFF71EFE40F26C70FEF7F8FFC0
:1022A0006420FFF717FE00231A4619461846FFF769
:1022B000AFFD4FF47A70FFF70DFE71A0FFF722FB20
:1022C000FEF7BAF97A490860FEF7B6F9794908606D
:1022D000FEF7B2F97849086040E078480078FEF7E8
:1022E000D7F8FEF7A9F8FEF7A7F904467348007877
:1022F00020B973480068201A322813D36D4800684B
:10230000201A142805D9FEF73DF8FEF739FE694872
:10231000046069480068201A0A2803D9FEF776FE8F
:102320006548046067480078C8280CDB6648406A46
:1023300000906548036AC269816964A0FFF7E2FA08
:1023400000206049087071480078401C6F4908708F
:102350005C480078401C5B49087000BFBDE7000086
:10236000524F5332E59B9BE8BDAEE5B7AEE9809F87
:10237000E4BCA0E6849FE599A8E695B0E68DAEE5BD
:102380008F91E5B883E7B3BBE7BB9FE5889DE5A7E1
:102390008BE58C96E5AE8CE688902E2E2E0D0A00ED
:1023A000E695B0E68DAEE58F91E5B883E6A0BCE595
:1023B000BC8F3A0D0A0000002D202F666F75725FEA
:1023C000776865656C5F656E636F6465722C656EBA
:1023D00063312C656E63322C656E63332C656E63DE
:1023E000342CE697B6E997B4E688B35C720A00002D
:1023F0000C270008E5BC80E5A78BE7A1ACE4BBB6E1
:10240000E8AF8AE696AD2E2E2E0D0A004D505536B9
:10241000303530E5889DE5A78BE58C96E5A4B1E8DD
:10242000B4A5EFBC8CE8AFB7E6A380E69FA5E8BFF4
:102430009EE68EA55C720A004D505536303530E56B
:10244000889DE5A78BE58C96E68890E58A9F5C726F
:102450000A000000E7BC96E7A081E599A8E6B58BE5
:10246000E8AF95E8AFBBE695B03A2025642C25642B
:102470002C25642C25640D0A000000000000864213
:10248000E7B3BBE7BB9FE5B0B1E7BBAAEFBC8CE508
:10249000BC80E5A78BE58F91E5B883E4BCA0E6841A
:1024A0009FE599A8E695B0E68DAE2E2E2E0D0A007A
:1024B0002800002020000020240000201A00002016
:1024C0004400002019000020D8010020E7B3BBE73A
:1024D000BB9FE78AB6E68081202D20E59B9BE8BD67
:1024E000AEE88489E586B23A2025642C25642C2543
:1024F000642C2564207C20494D553A20E6ADA3E5A7
:10250000B8B8E98787E99B860D0A0000180000200B
:1025100010B586B00446012144F20400FEF7D6FB54
:102520004FF40070ADF8140003208DF81600182049
:102530008DF8170005A91C48FDF7F2FF4FF48060E5
:10254000ADF8140004208DF8170005A91648FDF712
:10255000E7FF01940020ADF80800ADF80A00ADF8DF
:102560000C00ADF810000C20ADF80E0001A90F48CA
:10257000FFF750F9012240F225510C48FFF724F9EA
:1025800001210A48FFF7DDF825208DF80000002022
:102590008DF8010001208DF802008DF803006846D7
:1025A000FEF74AFB06B010BD0008014000380140AC
:1025B0000040404040404040404041414141414056
:1025C000404040404040404040404040404040400B
:1025D000400502020202020202020202020202029A
:1025E000022020202020202020202002020202029F
:1025F00002029090909090901010101010101010F7
:102600001010101010101010101010100202020202
:102610000202888888888888080808080808080846
:102620000808080808080808080808080202020242
:1026300040000000B1250008E7BC96E7A081E599BD
:10264000A8E695B0E68DAEE5BC82E5B8B8EFBC8CE7
:10265000E4BDBFE794A8E4B88AE6ACA1E69C89E6AD
:102660009588E580BCE38082E99499E8AFAFE8AE55
:10267000A1E695B03A2025640D0A0000E697B6E978
:1026800097B4E5908CE6ADA5E5AE8CE688903A204F
:10269000524F53E697B6E997B43D256C756D732C90
:1026A0002053544D3332E697B6E997B43D256C7507
:1026B0006D732C20E5818FE7A7BBE9878F3D256CE3
:1026C000756D730D0A000000494D55E695B0E68D15
:1026D000AEE8AFBBE58F96E5A4B1E8B4A52028E944
:1026E0009499E8AFAFE8AEA1E695B03A2025642909
:1026F000EFBC8CE8AFB7E6A380E69FA54D505536FA
:10270000303530E8BF9EE68EA50D0A002D202F69DA
:102710006D755F646174612C616363656C5F782CB7
:10272000616363656C5F792C616363656C5F7A2CB0
:102730006779726F5F782C6779726F5F792C677930
:10274000726F5F7A2C74656D702CE697B6E997B45A
:10275000E688B35C720A00004D50553630353020A3
:102760006465746563746564206572726F72210DAF
:102770000AE69CAAE6A380E6B58BE588B0204D501A
:10278000553630353020E6A8A1E59D97EFBC8CE8A2
:10279000AFB7E6A380E69FA5E8BF9EE68EA5E380DF
:1027A000825C720A00000000C827000800000020B8
:1027B000A80000006019000870280008A800002088
:1027C00078050000701900080000000000000000FB
:1027D00000000000000000000000000000000000F9
:1027E00000000000000000000000000000000000E9
:1027F00000000000000000000000000000000000D9
:1028000000000000000000000000000000000000C8
:102810000000000000A24A040000000000000000C8
:102820000102030406070809000000000102030476
:10283000010203040607080902040608000000005C
:102840000000000000000000000000000000000088
:102850000000000000000000000000000000000078
:102860000000000000000000000000000000000068
:0400000508000131BD
:00000001FF
